:020000020000FC
:101E00000069005A00D6001700201E0E1E8C4C657B
:101E100063747572610000FA010F005D011E0130EC
:101E200000000000005D00630082001700201E8C8F
:101E30001E5E022B021F0063001700201E401E4082
:101E400050726F62616E646F206D6F746F7200000C
:101E5000005A006000D2001700201E5E1E7A5072E9
:101E60006F626172206D6F746F72000000630066B4
:101E700000E40017003B1E7A000043616E74696441
:101E80006164206465207061736F730043616C69E5
:101E900062726163696F6E00006000690054002C1B
:101EA00000351E7A00004C616D702E2A4F6E2A2D6F
:101EB000204F666620004C616D702E204F6E202DE5
:101EC0002A4F66662A00008F00890099001700C912
:101ED0001ED40000496E6772657365204C616D62A7
:101EE00064613A20000000A000A000A0001700A13B
:101EF0001EFC00004C6579656E646F0050726F6364
:101F00006573616E646F00004578706F7274617202
:101F100020612050433F20004C6973746F0045726C
:101F2000726F72212100456E7669616E646F206167
:081F3000206C61205043000009
:1000000000C00FEF0DBF04E00EBF00C050D28DD175
:100010002ED2CBD211E092D2C4D212E08FD2C1D272
:10002000FD01369633D0FD01389630D052C01EE324
:1000300063D2FD013A96B590A590F501D3D208950B
:1000400010EC7CD2AED210E257D2FD013C96B590B6
:10005000A590F501C7D2089510E24ED2FD013A965F
:10006000B590A590F501BED2089510EC67D299D253
:100070001EE342D205C010EC61D293D210E23CD212
:10008000FEE1E6EA409B7096ADD20895B590A5904A
:10009000F5010994ED01BECFFD01F8CFFD013296C7
:1000A000F5CFFD013496F2CF409B02C04098B2CF0D
:1000B000409AB0CFBEE1A4E2ADCFBEE1A0E0AACFAE
:1000C000BEE1ACE6A7CFBEE1A0E5A4CFBEE1A8E9C2
:1000D000A1CFD2D0437E06B102FF0BC003FF0CC0FC
:1000E00004FF0DC002FD546003FD586004FD506123
:1000F000F0CF5B7F4460D0CF577F4860CFCF5F7E2B
:100100004061CFCFEAE9F3E0D191C081BEE1A6EC36
:1001100081CF21970AF07ECFD3E0C7EE7BCFF3E00B
:10012000E8EE2196DF17CE0709F074CFDD27CC2744
:1001300071CFEAE9F3E0D193C083BEE1A6EE6ACFC6
:10014000089511E0FBD12DD212E0F8D12AD2FDD0D2
:1001500016D19AD0FFE1E6E245D211E698D118E631
:1001600096D11FE694D112E792D111E690D111E217
:100170008ED111E0E3D115D212E0E0D112D21EE30C
:10018000BBD1FFE1E8E12ED27FD07ED0BEE1A4E278
:1001900041CF10ECD3D105D23E01F1E0E0E082D0B6
:1001A00027D208953FD1BEE1A2E334CF11E0C6D1FA
:1001B000F8D112E0C3D1F5D1D5D00CD1F2E0EAE00C
:1001C000BEE1A6E127CF089511E0B8D1EAD112E04F
:1001D000B5D1E7D1FFD03B01F1E0E0E063D005E02D
:1001E000119155D189D111910A950030D1F74CD098
:1001F0004BD010CFBF93AF933196D2E0CAE0DF016E
:10020000AC1BBD0BD3E0CAEAAC17BD0718F0AF9129
:10021000BF9100CFAF91BF91F2E0EAE0FBCE319702
:10022000F2300AE0E00709F0F5CEF3E0EAEAC19126
:10023000D191F2E0EAE0EC0FFD1FECCE1081FF93CC
:10024000EF937724612EF1E0E0E02CD005E01191EE
:1002500053D111910A950030D9F7EF91FF9108958C
:1002600010EC6CD19ED10895FFCF222433243A9410
:10027000F1F72A94D9F708950FEA202E33243A94FF
:10028000F1F72A94D9F70895F0DFEFDFEEDFEDDF25
:10029000ECDF089502E0902E55245A94F1F79A94D9
:1002A000D9F708951BD004E0402E0081002329F4E3
:1002B00000E201934A94C9F700814394005D0193E1
:1002C00000814A94D9F735970895ECDF06E0402E77
:1002D0004A9401910032E1F3319708957F926F9231
:1002E00007E2502E00E1402E14D003E0502E08EE1D
:1002F000402E0FD000E0502E04E6402E0AD000E041
:10030000502E0AE0402E05D0608234976F907F9087
:1003100008950027751438F011F4641420F064185F
:1003200075080395F7CF01930895239A259A229A89
:1003300001E70CBD0DB50EB508950EBD08950EB5BF
:1003400008950DB507FFFDCF089503E72A98F5DF5F
:10035000F8DF2A9A00E02A98F0DFF3DFF0DF2A9A2C
:1003600093DF089500E72A98E8DFEBDF2A9A00E0A0
:100370002A98E3DFE6DFE3DF2A9A86DF089536E690
:1003800004E62A98DADFDDDF2A9A00E02A98D5DF32
:10039000D8DFD5DF2A9A102FDD27C12F3E01F1E0EB
:1003A000E0E080DF1191119103E0119170D0119183
:1003B0000A950030D9F71CE26AD000000000000066
:1003C00000000000000000000000000000003A955E
:1003D000B9F6089500E72A98B0DFB3DF2A9A00E063
:1003E0002A98ABDFAEDFABDF2A9A602F3EDF03E651
:1003F0002A98A3DFA6DF2A9A00E02A989EDFA1DFD1
:100400009EDF2A9A602F31DF03E62A9896DF99DF74
:100410002A9A00E02A9891DF94DF91DF2A9A702FC0
:1004200024DF08950DE62A9888DF8BDF2A9A00E002
:100430002A9883DF86DF83DF2A9A26DF08950AE67B
:100440002A987BDF7EDF2A9A00E02A9876DF79DF20
:1004500076DF2A9ADFCD05E72A986FDF72DF2A9AC6
:1004600000E02A986ADF6DDF6ADF2A9AD3CD00E0C8
:100470000093C5000CE00093C40000E20093C000AC
:1004800008E10093C1000EE20093C20008950F93AB
:100490000091C00005FFFCCF1093C6000F91089596
:1004A0000091C00007FFFCCF2091C6000895399A43
:1004B000529A539ADADE10E20ED073D018E23ED090
:1004C00070D01CE03BD06DD011E038D06AD016E07F
:1004D00035D067D008950AB1006F0AB90BB10F701B
:1004E000107F012B0BB95B9A0000000000005B98A5
:1004F0000AB10F700AB908950F931F930AB1006FE4
:100500000AB90BB10170107F012B0BB9419A5B9AAC
:100510000000000000005B981F910F701295107F83
:10052000012B0BB9419A5B9A0000000000005B9818
:1005300041980AB10F700AB90F9108951F930AB13B
:10054000006F0AB90BB10170107F012B0BB95B9AD8
:100550000000000000005B981F910F701295107F43
:10056000012B0BB95B9A0000000000005B980AB1F8
:100570000F700AB908950AB10F700AB941985A9AD2
:100580005B9A000009B1007F202F5B9800000000FB
:100590005B9A000009B1007F0295202B5B985A9866
:1005A0000895E9DF2078E9F70895D0E0C1E001E09F
:1005B0005FEF40E0BEE1A0E03A983B983C98429A59
:1005C000439A449A389A409800E0802E089511E0AA
:1005D000B5DFE7DF12E0B2DFE4DF04D010ECAEDF1E
:1005E000E0DF0895159188DF15911030E1F7089547
:1005F00005E0119181DF11910A950030D9F7089536
:1006000000E3100F79DF089511E098DFCADF12E0F0
:0606100095DFC7DFE7DF04
:00000001FF
