:020000020000FC
:100C0000050C2A0C0600040C000C0C00060C060C4B
:100C10001200020C0C0C18000A0C120C1E00080C1E
:100C2000180C2400090C1E0C2A00010C240C0000D6
:0200000011C02D
:10002200F0C00FEF0DBF04E00EBF00C05098519A10
:10003200549A0FE007B92098219826982698289A72
:10004200299A2E9A00E0A02E0CE0B02EF1D1D2D047
:1000520019D1A8E7B2E078947894FFCF00E000933A
:10006200C5000CE00093C40000E20093C00008E168
:100072000093C10006E40093C20008950091C000FD
:1000820005FFFCCF6093C60008950091C00007FFF2
:10009200FCCF2091C6000895A8E7B2E0FD91EC9153
:1000A200DD27CC2700243BD1D2D0021630F0219696
:1000B200DAD198D03197B9F70895022EABE7B2E0C2
:1000C200DD93CC93F4CFA8E7B2E0FD91EC91A3E8E5
:1000D200B2E025D12D9300E1C6D10A95E9F77097D8
:1000E200C1F70895ADE7B2E01D900C90AFE7B2E022
:1000F2003D902C9021D0A1E8B2E004E0000C111C4C
:100102000A95E1F71D920C92A7E7B4E01D900C90BE
:10011200A9E7B4E03D902C900FD0ABE7B4E01D927C
:100122000C92A1E8B2E01D900C90ABE7B4E03D90D8
:100132002C9016D0222D0895131449F018F00218AD
:100142001308089520183108022C132CFACF021438
:1001520018F002181124F5CF20181124022CF1CF27
:1001620088944424552488278395022D001F202E2D
:10017200032D001F302EC0F7032D0795302E022DC0
:100182000795202E8894712C602C002D0209002ED8
:10019200012D0309102E10F4172C062C60F48894FC
:1001A200042D001F402E052D001F502E8A9521F789
:1001B200352C242C08950894F3CF222433243A9426
:1001C200F1F72A94D9F708950FEA202E33243A94AE
:1001D200F1F72A94D9F70895F0DFEFDFEEDFEDDFD4
:1001E200ECDF089502E0902E55245A94F1F79A9488
:1001F200D9F70895249A219A10EE1CBD0DB50EB5BB
:1002020008956EB5633769F06436B9F06037C1F0AE
:100212006336D1F0653769F06A3669F06D3601F000
:10022200189507E70EBD7BD075D011D0AAE7B2E0D2
:10023200F7CF23D1F5CF17D1F3CF0C910EBDF0CF6D
:10024200B2E0A8E714E0ECCF0D910EBDE9CFB2E029
:10025200A0E0442402E28D910A95E9F788942C905B
:100262000FE18D91280E341C0A95D9F705E03694DA
:1002720027940A95E1F7AAE7B2E02C922C91B2E01A
:10028200A0E0089560D06FEF8DD06FEF8BD042D099
:1002920041D040D084E06FEF85D08A95E1F702D05B
:1002A2008CDF08956EE37ED06EEF7CD060E07AD072
:1002B2006EEF78D060E876D06EEF74D060E072D0E6
:1002C2006EEF70D062E86ED06EEF6CD060E06AD0F4
:1002D2006EEF68D064E866D06EEF64D060E062D002
:1002E2006EEF60D066E85ED06EEF5CD060E05AD010
:1002F2006EEF58D068E856D06EEF54D060E052D01E
:100302006EEF50D06AE84ED06EEF60E04BD06EEFE9
:1003120049D0089566E346D06EEF44D0089523D0C5
:100322001AEF7BD02BD031D056E6A0E0B2E047D016
:10033200A0E0B2E008955C9A5C98A89BFCCFA898D4
:1003420000E005BD089500E00093C5000CE00093B5
:10035200C40000E20093C00008E10093C10004EC75
:100362000093C200089560E11DD06EEF1BD06FEFC5
:1003720019D06FEF17D06FEF15D0089560E212D049
:100382006EEF10D06FEF0ED0089564E00BD06EEFD9
:1003920009D06FEF07D06FEF05D06FEF03D06FEF8B
:1003A20001D008950091C00005FFFCCF6093C60004
:1003B2000091C00007FFFCCF6091C60008956FEF67
:1003C200F1DF882703D02930D1F3089509E008949A
:1003D20022272395679518F40A95D9F7089508D02E
:1003E2006FEFE0DF05D00FD05A95C9F720E0F6CFC6
:1003F20018E0121B103071F022276795879523951C
:100402001A95D9F7089567952395679523958D9346
:10041200882708956FEFC6DFE2CF04E005BD16BD61
:1004220004D000E005BDA8980895A89BFECF0895CA
:10043200CC27DD2718D0D6DE03B182E008230030B6
:10044200C9F771E01AD0CEDE03B180E40823003090
:1004520029F07A95B9F72196F4CFF4CFB2E0A8E764
:10046200CD93DD930895F501059188B1807F082B26
:1004720008B93296B590A5900895F501059188B115
:0C048200807F082B08B9B590A590089564
:00000001FF
